{
  "contractName": "studentHassanEjaz",
  "abi": [
    {
      "inputs": [
        {
          "internalType": "int256",
          "name": "_rollNumber",
          "type": "int256"
        },
        {
          "internalType": "string",
          "name": "_fName",
          "type": "string"
        },
        {
          "internalType": "string",
          "name": "_lName",
          "type": "string"
        },
        {
          "internalType": "uint256",
          "name": "_year",
          "type": "uint256"
        },
        {
          "internalType": "bool",
          "name": "_is_student",
          "type": "bool"
        }
      ],
      "name": "setUserInfo",
      "outputs": [],
      "stateMutability": "nonpayable",
      "type": "function"
    },
    {
      "inputs": [],
      "name": "getUserInfo",
      "outputs": [
        {
          "internalType": "int256",
          "name": "",
          "type": "int256"
        },
        {
          "internalType": "string",
          "name": "",
          "type": "string"
        },
        {
          "internalType": "string",
          "name": "",
          "type": "string"
        },
        {
          "internalType": "uint256",
          "name": "",
          "type": "uint256"
        },
        {
          "internalType": "bool",
          "name": "",
          "type": "bool"
        }
      ],
      "stateMutability": "view",
      "type": "function",
      "constant": true
    }
  ],
  "bytecode": "0x608060405234801561001057600080fd5b50610648806100206000396000f3fe608060405234801561001057600080fd5b50600436106100365760003560e01c806345705dd51461003b5780635d8d158514610057575b600080fd5b610055600480360381019061005091906103cf565b610079565b005b61005f6100ce565b604051610070959493929190610551565b60405180910390f35b86600081905550858560019190610091929190610219565b508383600291906100a3929190610219565b508160038190555080600460006101000a81548160ff02191690831515021790555050505050505050565b600060608060008060005460016002600354600460009054906101000a900460ff168380546100fc906105e1565b80601f0160208091040260200160405190810160405280929190818152602001828054610128906105e1565b80156101755780601f1061014a57610100808354040283529160200191610175565b820191906000526020600020905b81548152906001019060200180831161015857829003601f168201915b50505050509350828054610188906105e1565b80601f01602080910402602001604051908101604052809291908181526020018280546101b4906105e1565b80156102015780601f106101d657610100808354040283529160200191610201565b820191906000526020600020905b8154815290600101906020018083116101e457829003601f168201915b50505050509250945094509450945094509091929394565b828054610225906105e1565b90600052602060002090601f016020900481019282610247576000855561028e565b82601f1061026057803560ff191683800117855561028e565b8280016001018555821561028e579182015b8281111561028d578235825591602001919060010190610272565b5b50905061029b919061029f565b5090565b5b808211156102b85760008160009055506001016102a0565b5090565b600080fd5b600080fd5b6000819050919050565b6102d9816102c6565b81146102e457600080fd5b50565b6000813590506102f6816102d0565b92915050565b600080fd5b600080fd5b600080fd5b60008083601f840112610321576103206102fc565b5b8235905067ffffffffffffffff81111561033e5761033d610301565b5b60208301915083600182028301111561035a57610359610306565b5b9250929050565b6000819050919050565b61037481610361565b811461037f57600080fd5b50565b6000813590506103918161036b565b92915050565b60008115159050919050565b6103ac81610397565b81146103b757600080fd5b50565b6000813590506103c9816103a3565b92915050565b600080600080600080600060a0888a0312156103ee576103ed6102bc565b5b60006103fc8a828b016102e7565b975050602088013567ffffffffffffffff81111561041d5761041c6102c1565b5b6104298a828b0161030b565b9650965050604088013567ffffffffffffffff81111561044c5761044b6102c1565b5b6104588a828b0161030b565b9450945050606061046b8a828b01610382565b925050608061047c8a828b016103ba565b91505092959891949750929550565b610494816102c6565b82525050565b600081519050919050565b600082825260208201905092915050565b60005b838110156104d45780820151818401526020810190506104b9565b838111156104e3576000848401525b50505050565b6000601f19601f8301169050919050565b60006105058261049a565b61050f81856104a5565b935061051f8185602086016104b6565b610528816104e9565b840191505092915050565b61053c81610361565b82525050565b61054b81610397565b82525050565b600060a082019050610566600083018861048b565b818103602083015261057881876104fa565b9050818103604083015261058c81866104fa565b905061059b6060830185610533565b6105a86080830184610542565b9695505050505050565b7f4e487b7100000000000000000000000000000000000000000000000000000000600052602260045260246000fd5b600060028204905060018216806105f957607f821691505b60208210810361060c5761060b6105b2565b5b5091905056fea26469706673582212202b07484a3ae9330690430e19bbb7cd9d41ae8d68ca80f263c79359d1a3086f7d64736f6c634300080d0033",
  "immutableReferences": {},
  "source": "// SPDX-License-Identifier: MIT\npragma solidity >=0.4.22 <0.9.0;\n\ncontract studentHassanEjaz{\n\n    int private rollNumber;\n    string private firstName;\n    string private lastName;\n    uint private yearPassingout;\n    bool private is_student;\n    \n    function setUserInfo(int _rollNumber, string calldata _fName, string calldata _lName, uint _year, bool _is_student) public {\n    \n    rollNumber = _rollNumber;\n    firstName = _fName;\n    lastName = _lName;\n    yearPassingout = _year;\n    is_student = _is_student;\n    }\n    function getUserInfo() public view returns (int, string memory, string memory, uint, bool)\n    {\n    return (rollNumber,firstName,lastName,yearPassingout,is_student);\n    }\n    }\n    ",
  "sourcePath": "/home/hassan/Documents/Projects/assignment39.6lab/contracts/Assignment.sol",
  "compiler": {
    "name": "solc",
    "version": "0.8.13+commit.abaa5c0e.Emscripten.clang"
  },
  "schemaVersion": "3.4.7",
  "updatedAt": "2022-05-20T15:49:05.323Z",
  "networkType": "ethereum",
  "devdoc": {
    "kind": "dev",
    "methods": {},
    "version": 1
  },
  "userdoc": {
    "kind": "user",
    "methods": {},
    "version": 1
  }
}